:100000000C9434000C9477000C94EA000C94490092
:100010000C9449000C9449000C9449000C9449003C
:100020000C9449000C9449000C9449000C9449002C
:100030000C9449000C9449000C9449000C9449001C
:100040000C9449000C9449000C9449000C9449000C
:100050000C9449000C9449000C9449000C944900FC
:100060000C9449000C94490011241FBECFEFD8E036
:10007000DEBFCDBF11E0A0E0B1E0E4ECF2E002C0F1
:1000800005900D92AE30B107D9F70E944B000C9449
:1000900060010C94000087B18FEF87B994B184B9E7
:1000A00052985398549A559A809169008860809329
:1000B000690080916900826080936900E89AE99AFA
:1000C0007894E0910C01F0910D01E050FF4F908188
:1000D00088B1892B88B9E0910A01F0910B01E050B9
:1000E000FF4F908185B1892B85B95C9AFFCF1F9214
:1000F0000F920FB60F9211248F939F93EF93FF935C
:1001000080910C0190910D010A9769F410920D01F4
:1001100010920C0180910A0190910B01019690932D
:100120000B0180930A0180910C0190910D010597BC
:10013000ACF080910A0190910B011816190674F425
:1001400085E090E090930D0180930C0181E090E0B8
:1001500090930B0180930A015C9A32C088B118B861
:1001600080910C0190910D01019690930D01809367
:100170000C01E0910C01F0910D01E050FF4F9081D6
:1001800088B1892B88B980910C0190910D01059758
:1001900049F480910A0190910B01019719F45C9A3E
:1001A0005D9802C05C985D9A85B115B8E0910A012E
:1001B000F0910B01E050FF4F908185B1892B85B9FB
:1001C0007894FF91EF919F918F910F900FBE0F90B8
:1001D0001F9018951F920F920FB60F9211248F93B4
:1001E0009F93EF93FF9380910A0190910B01892BCC
:1001F000C9F480910C0190910D01892B99F4109212
:100200000D0110920C01E0910C01F0910D01E050F4
:10021000FF4F908188B1892B88B910920B01109201
:100220000A013AC080910C0190910D01892B79F45B
:100230008AE090E090930D0180930C0180910A0177
:1002400090910B01019790930B0180930A0180918B
:100250000C0190910D01019790930D0180930C0179
:1002600080910C0190910D01079744F480910A014F
:1002700090910B01029714F45C985D9A88B118B8BC
:10028000E0910C01F0910D01E050FF4F908188B199
:10029000892B88B985B115B8E0910A01F0910B015D
:1002A000E050FF4F908185B1892B85B97894FF91FB
:1002B000EF919F918F910F900FBE0F901F90189507
:0402C000F894FFCFE0
:0E02C4003F065B4F666D7D077FEF0100050072
:00000001FF
